:100000000C94AD000C94B90E0C94EA0E0C941B0FDA
:100010000C94DC000C94DC000C94DC000C94DC00F0
:100020000C94DC000C94DC000C94DC000C94DC00E0
:100030000C94DC000C94DC000C94DC000C94DC00D0
:100040000C94DC000C94DC000C94C50D0C94DC00CA
:100050000C94DA110C945A120C94DC000C94DC0011
:100060000C94DC000C94DC000C944A0A0C94DC0028
:100070000C9412120C94A5120C94DC000C94DC006D
:100080000C94DC000C94DC000C94DC004B075E0745
:100090006E0781078907B707BF07CA07D207DC07C2
:1000A000DC07DC07DC07DC07DC07DC07DC07DC0738
:1000B000DC07DC07DC07DC07DC07DC07DC07DC0728
:1000C000DC07DC07DC07DC07DC07DC074B0757072E
:1000D0005E076E07810789079C07A407AC0700002D
:1000E00000000000000107030200080900000000F2
:1000F00000000000040600000000000000000102F3
:100100000408010204084020102040808040201094
:100110000804020110808040201008040201040439
:1001200004040202020204040202020203030303A3
:1001300003030303040401010101010101010000A3
:100140002200250028002B000000210024002700A9
:100150002A0058041D0ABD0D6A1311241FBECFEFDB
:10016000D0E4DEBFCDBF12E0A0E0B1E0E2E6FFE206
:1001700000E00BBF02C007900D92A434B107D9F77D
:1001800015E0A4E4B2E001C01D92AC31B107E1F783
:1001900011E0CAE5D1E000E006C022970109FE01A6
:1001A0000BBF0E94A014C235D10780E00807A9F751
:1001B0000E94F40F0C94AF170C94000081E0809320
:1001C000500208950F931F93CF93DF93EC0188851E
:1001D0009985892B19F40E94210E02C00E940F0EEE
:1001E0000C811D812E813F81601B710B820B930B53
:1001F0006095709580959095662797FD6395772714
:1002000088279927862FDF91CF911F910F9108950D
:10021000882319F06AE271E002C068E371E08EECB5
:1002200093E00C9439108F929F92AF92BF92CF922D
:10023000DF92EF92FF920F931F93CF93DF93CDB78F
:10024000DEB765970FB6F894DEBF0FBECDBF952E13
:100250006F3F710569F06A30710518F4E0E38E2E86
:1002600005C06432710538F477E3872E860E05C029
:1002700060E3862E02C05AE5852EBE016F5F7F4F78
:100280002C8B3D8B4B8B0E94090D8B859C852C897B
:100290003D894B898834910544F08857984F64E62E
:1002A00070E00E943C14FC0102C0E0E0F0E00F8529
:1002B00018890F5F1F4FAD80BE80CB80DC80E98046
:1002C000FA80882D992787FD90959F938F92FF93B1
:1002D000EF93C80164E670E00E943C147F936F9333
:1002E000EAE0F0E0C801BF010E943C14182F092F7A
:1002F000CB01BF010E943C149F938F930F931F93D8
:10030000C501BF010E943C147F936F939F938F930D
:10031000C601BF010E943C147F936F939F938F93FC
:10032000C701BF010E943C147F936F939F938F93EB
:1003300086E491E09F938F933F932F939F924F93E7
:100340000E94CA140FB6F894DEBF0FBECDBF6596EB
:100350000FB6F894DEBF0FBECDBFDF91CF911F91D6
:100360000F91FF90EF90DF90CF90BF90AF909F9054
:100370008F900895CF9329E288E190E00FB6F8942A
:10038000A895809360000FBE20936000C2E062E0F9
:100390008C2F0E94850FCF5FC032C9F760E083E0E9
:1003A0000E94850F60E084E00E94850F40E855E2DE
:1003B00060E070E08DEE93E00E94F01240E052ECBD
:1003C00061E070E08EEC93E00E94F01261E08DE05D
:1003D0000E94850F60E08DE00E94BD0F61E080917A
:1003E00000010E94850F60E0809100010E94BD0F16
:1003F0006AE671E08EEC93E00E94391066E771E0E6
:100400008EEC93E00E94391062E871E08EEC93E08C
:100410000E94391060E086E00E94850F43E050E0C2
:100420006EED70E082E0CF910C948A0E7F928F92F5
:100430009F92AF92BF92CF92DF92EF92FF920F9373
:100440001F93CF93DF93CDB7DEB76E970FB6F894B7
:10045000DEBF0FBECDBFA895809150028823F1F07A
:100460001092500210924E02E0910101F0910201AF
:100470008091030190910401909302018093010106
:10048000F0930401E0930301108280915502809360
:1004900056021092550281E080934F0280914E02E5
:1004A000811105C080914E02883040F0E5C084E49F
:1004B00092E00E94E2008111F5CFDEC0E0910101DF
:1004C000F09102018081811176C1D6C06AE28DEE81
:1004D00093E00E943B104AE050E060914E028DEEA6
:1004E00093E00E94D51060910101709102018DEEA0
:1004F00093E00E94391080914E02882319F08130D8
:1005000061F525C0609156028DE00E94BD0F4091BB
:100510000301509104018091510290915202A091E7
:100520005302B09154020196A11DB11D8093510256
:1005300090935202A0935302B093540224E130E00E
:1005400060E070E081E592E00E94130106C06091D6
:10055000560268278DE00E94BD0F80914E028F5F8A
:1005600080934E0289C0612F8DEE93E00E943B1074
:10057000612F8AE892E00E94E407882309F47EC094
:10058000F3E18F2E912C8C0E9D1EA9E1AA2EB12C89
:10059000AC0EBD1EBAE1CB2ED12CCC0EDD1E1BE164
:1005A000E12EF12CEC0EFD1E8E01045E1F4F9E010C
:1005B000235E3F4FAE01425E5F4FBE01695E7F4FDB
:1005C0008AE892E00E94B1088B899C89AD89BE8936
:1005D000883E9340A105B10508F050C08F89988DE1
:1005E000885897409C878B878E8D90E001979A87DB
:1005F00089878D8D8F8318868C8D8D831E828B8D40
:100600008B831C828A8D89831A82CE0101960E9477
:10061000D00B6F5F7F4F8F4F9F4F6093510270934E
:10062000520280935302909354027092550240916B
:100630000301509104016091CA027091CB0224E140
:1006400030E081E592E00E941301809189028823C5
:10065000A9F08DEE93E00E9442106AE971E08DEE00
:1006600093E00E94391060910301709104018DEEB6
:1006700093E00E94391002C0772473948091500255
:1006800081117CC0E091CE03F091CF030480F5810D
:10069000E02D8EEC93E00995892B09F0C9C06EC05E
:1006A00065E371E08EEC93E00E9439106BC08132FB
:1006B00051F461EA71E08DEE93E00E94581080E001
:1006C0000E9408015FC0833209F03FC08091890217
:1006D000872580938902882389F16BEA71E08DEE8A
:1006E00093E00E9458108091050190910601A0911D
:1006F0000701B091080180937F0290938002A0933C
:100700008102B093820210938802009387020E94B4
:100710000F0EC0907F02D0908002E0908102F09096
:1007200082026C0D7D1D8E1D9F1D60938302709350
:100730008402809385029093860224C06FEB71E05F
:100740008DEE93E00E9458101DC0863689F462ED4C
:1007500071E08DEE93E00E9439102AE030E040E035
:100760005BE167EB70E08DEE93E00E9427110AC019
:10077000682F8EEC93E00E943B1004C077247394A2
:1007800001E010E080915002811171C0E091ED0311
:10079000F091EE030480F581E02D8DEE93E0099554
:1007A000892B09F056C063C08FE792E00E94E200F7
:1007B000811162C069C060914F02809100010E9466
:1007C000BD0F80914F0291E0892780934F028DE702
:1007D00090E0A0E0B0E08093440290934502A093A3
:1007E0004602B093470281E090E090934D028093DF
:1007F0004C020E940F0E009144021091450220917C
:10080000460230914702600F711F821F931F609351
:1008100048027093490280934A0290934B02E09100
:100820000101F09102018081882309F464CE4ECE4B
:10083000E091CE03F091CF030680F781E02D8EEC9E
:1008400093E00995182F80918902882309F490CEAE
:100850008ACEE091ED03F091EE030680F781E02D62
:100860008DEE93E009958A3009F021CF19CF809160
:100870008902882349F098CF62EE71E08DEE93E013
:100880000E945810109289026E960FB6F894DEBF3F
:100890000FBECDBFDF91CF911F910F91FF90EF90D1
:1008A000DF90CF90BF90AF909F908F907F900895F2
:1008B000EF92FF920F931F93CF93DF938AE892E01A
:1008C0000E94A404CFE7D2E0188219821A821B8208
:1008D000EE24E394F12CF0928802E09287020E94C9
:1008E0000F0E088119812A813B81600F711F821FC1
:1008F000931F609383027093840280938502909388
:100900008602C4E4D2E0188219821A821B82F09215
:100910004D02E0924C020E940F0E088119812A813B
:100920003B81600F711F821F931F60934802709379
:10093000490280934A0290934B02DF91CF911F911D
:100940000F91FF90EF9008950F931F93FC010FEF0D
:100950001FEF980100831183228333831086118651
:10096000128613864FEF59EC6AE97BE3408B518B7B
:10097000628B738B408F518F628F738F40A351A313
:1009800062A373A340A751A762A773A740AB51AB63
:1009900062AB73AB00AF11AF22AF33AFDC01A05C31
:1009A000BF4F8FEF90E08D939C93DF01AC5BBF4F07
:1009B0000D931D932D933C931397DF01A45BBF4FC1
:1009C0000D931D932D933C931397DF01AC5ABF4FAA
:1009D0001C92DF01AB5ABF4F1C92DF01AB59BF4FD6
:1009E00082E08C93DF01AA59BF4F1C92DF01A95905
:1009F000BF4F1C92DF01A859BF4F1C92DF01A759BE
:100A0000BF4F1D921D921D921C921397DF01A35997
:100A1000BF4F1D921C92DF01A159BF4F1D921C9226
:100A2000EA5AFF4F10821F910F910895862F81542B
:100A3000262F332727FD3095863018F427533109A8
:100A400008C06156663018F42755310902C020539A
:100A50003109C9010895CF93FB0120E030E0A901DD
:100A600014C0AAE0B0E00E9405149B01AC018C2FD9
:100A7000992787FD9095A92FB92F280F391F4A1F55
:100A80005B1F2053310941095109C1918C2F8053BB
:100A90008A3038F3B901CA01CF9108952F923F925D
:100AA0004F925F926F927F928F929F92AF92BF927E
:100AB000CF92DF92EF92FF920F931F93CF93DF932A
:100AC000EC01CA5ADF4FBE010E942B053B018C018D
:100AD00024E630E040E050E00E9450149B01AC015D
:100AE00060EA76E881E090E00E9418146B017C01D6
:100AF000FE018191982F90539A30D8F38E3231F5C0
:100B0000EF0180E1882E87E2982EA12CB12C9AE08B
:100B1000292E312C412C512C14C0BB27A7FDB09598
:100B2000D097A50194010E941014C60ED71EE81E8E
:100B3000F91EC501B401A20191010E94501449019E
:100B40005A01A9918A2F80538A3038F3C701B60120
:100B50006D5F7F4F8F4F9F4F26E030E040E050E0C9
:100B60000E94501469017A01B301C80124E630E003
:100B700040E050E00E94501460E472E48FE090E0A6
:100B80000E941814C60ED71EE81EF91EB601C70132
:100B9000DF91CF911F910F91FF90EF90DF90CF9059
:100BA000BF90AF909F908F907F906F905F904F908D
:100BB0003F902F900895FF920F931F93CF93DF9351
:100BC000EC01CA5ADF4FFF24F39428812D3211F033
:100BD000F12C03C0EC01C95ADF4FBE010E942B0566
:100BE0009B01AC01A4E6B0E00E9405148B019C01BE
:100BF000FE018991982F90539A30D0F38E3221F5CF
:100C00008181982F90539A30F8F44AE08402C00111
:100C10001124805E9140AA2797FDA095BA2F080F56
:100C2000191F2A1F3B1F8281982F90539A3060F41E
:100C3000992787FD9095C097AA2797FDA095BA2F71
:100C4000080F191F2A1F3B1FFF2039F030952095F0
:100C5000109501951F4F2F4F3F4FB801C901DF91EC
:100C6000CF911F910F91FF900895FB01DA018191BF
:100C7000882319F09D918917D1F3282F332727FD59
:100C80003095932F0895EF92FF920F931F93CF9378
:100C9000DF93EC01FC01EB5AFF4F8081FE018823BA
:100CA00009F4B8C0EA5AFF4F6081CE010E941605D0
:100CB000182FFE01E95AFF4F6081CE010E941605F0
:100CC00020E1129F800D1124FE01EC5AFF4F90810C
:100CD00089139AC0FE01E859FF4F8081882309F4E7
:100CE0006BC1FE01E359FF4F808191810196918391
:100CF0008083FE01EC5BFF4FDE01A85BBF4F8D914F
:100D00009D910D90BC91A02D80839183A283B3838C
:100D1000FE01E45BFF4FDE01A05BBF4F8D919D9113
:100D20000D90BC91A02D80839183A283B383FE019B
:100D3000EB59FF4F80818823A1F1813009F03AC13E
:100D40008C819D81AE81BF8188839983AA83BB8377
:100D50008C859D85AE85BF8588879987AA87BB8747
:100D60008C899D89AE89BF89888B998BAA8BBB8B17
:100D70008C8D9D8DAE8DBF8D888F998FAA8FBB8FE7
:100D80008CA59DA5AEA5BFA588A799A7AAA7BBA717
:100D90008CA99DA9AEA9BFA988AB99ABAAABBBABE7
:100DA00009C18CA19DA1AEA1BFA188A399A3AAA3AB
:100DB000BBA38C819D81AE81BF8188839983AA83E7
:100DC000BB838C899D89AE89BF89888B998BAA8BBF
:100DD000BB8B8C8D9D8DAE8DBF8D888F998FAA8F8B
:100DE000BB8FFE01E05CFF4FDE01AE5BBF4F8D911C
:100DF0009C91918380838CAD9DADAEADBFAD88AF2E
:100E000099AFAAAFBBAFD6C0C159DF4F88819981D6
:100E10000196BDC0EA59FF4F9081911120C07E011B
:100E200086E5E80EF11C45EF51E0B701CE010E94C6
:100E300035068E010B591F4F892B11F481E00CC030
:100E40004BEF51E0B701CE010E943506892B19F412
:100E5000F8011082B1C082E0F8018083ADC0FE01CC
:100E6000EB59FF4FE081E23009F4A6C0DE01AA5A37
:100E7000BF4F8C91882309F49FC020E2E29FF001CC
:100E80001124E92B3197E932F10508F095C0EA5BAE
:100E9000FF4F0C948E14CE010E94DB056C837D8382
:100EA0008E839F830E940F0EC85BDF4F12C0C8590C
:100EB000DF4F91E0813409F460C05EC0CE010E9432
:100EC0004E056C8B7D8B8E8B9F8B0E940F0EC05BB3
:100ED000DF4F688379838A839B836EC0833509F0F3
:100EE0006BC08C899D89AE89BF89B095A09590957E
:100EF00081959F4FAF4FBF4F8C8B9D8BAE8BBF8B20
:100F00005BC0CE010E944E056C8F7D8F8E8F9F8FB0
:100F100053C0873509F050C08C8D9D8DAE8DBF8D2F
:100F2000B095A095909581959F4FAF4FBF4F8C8FF7
:100F30009D8FAE8FBF8F40C0CE010E94DB056CA796
:100F40007DA78EA79FA738C0CE010E94DB056CABA2
:100F50007DAB8EAB9FAB30C0BE016A5A7F4FCE01D6
:100F60000E942B056C877D878E879F8725C0C85977
:100F7000DF4F91E081330CF490E098831DC0CE01E7
:100F80008A5A9F4F0E94A414CE5BDF4F9927998302
:100F9000888312C0CE010E94DB056CAF7DAF8EAF9F
:100FA0009FAF0AC0CE010E94DB056CA37DA38EA378
:100FB0009FA302C081E001C080E0DF91CF911F912B
:100FC0000F91FF90EF9008951F93CF93DF93EC0163
:100FD000162FFC01E759FF4F4081518162817381D7
:100FE0004F5F5F4F6F4F7F4F4083518362837383A7
:100FF000FC01E959FF4F1432A9F134F41A3079F0A9
:101000001D3009F045C00BC01A3249F01C3209F0FE
:101010003FC0FC01EC5AFF4F808181278083FE0195
:10102000E959FF4F80818F3050F4FE01E80FF11D28
:10103000EA5AFF4F1082CE010E94430601C080E0B1
:10104000FE01EA59FF4F90819F5F9083FE01E959AD
:10105000FF4F1082CB5ADF4F91E01A3209F090E037
:1010600098832DC01082FC01EA59FF4F1082FC01C9
:10107000EC5AFF4F1082FC01EB59FF4F82E0808356
:10108000FE01EB5AFF4F1082C859DF4F188216C07D
:1010900080818E3040F4DE01A80FB11DAA5ABF4FE7
:1010A0001C938F5F8083FE01EB5AFF4F808181117B
:1010B00005C0CC5ADF4F88818127888380E0DF918B
:1010C000CF911F910895CF92DF92EF92FF920F93ED
:1010D0001F93CF93DF93E9016115710551F0FC0176
:1010E000C084D184E284F384FB01C082D182E28295
:1010F000F3824115510551F0FC01C080D180E2809E
:10110000F380FA01C082D182E282F382209701F15A
:101110008C010C5B1F4FF80180819181A281B3810A
:101120008F3F9F4FAF4FBF4F61F00E940F0EF801EE
:101130000081118122813381601B710B820B930B23
:1011400003C06FEF7FEFCB01688379838A839B8332
:10115000DF91CF911F910F91FF90EF90DF90CF9093
:1011600008952F923F924F925F926F927F928F924B
:101170009F92AF92BF92CF92DF92EF92FF920F9326
:101180001F93CF93DF93CDB7DEB72A970FB6F894AE
:10119000DEBF0FBECDBF2B015A87498719019401CD
:1011A000AE014F5F5F4FBE016B5F7F4F0E946308D0
:1011B00041145104B9F06D817E818F81988524E6B8
:1011C00030E040E050E00E945014613571051CF0A1
:1011D0008CE697E002C080ED97E0680F791FF2017E
:1011E0007183608389859A85892BB1F06D817E81B9
:1011F0008F81988544E6442E512C612C712CA301DB
:1012000092010E945014CA01B901A30192010E94E7
:101210005014E985FA8560832114310461F06D81F1
:101220007E818F81988520E137E240E050E00E9486
:101230005014F10120830115110561F069817A8153
:101240008B819C8120E432E44FE050E00E945014F6
:10125000F8012083E114F104A1F069817A818B8186
:101260009C8120E137E240E050E00E945014CA0126
:10127000B90124E630E040E050E00E945014F7014C
:101280006083C114D104A9F069817A818B819C812A
:1012900034E6432E512C612C712CA30192010E9443
:1012A0005014CA01B901A30192010E945014F60121
:1012B0006083A114B10461F069817A818B819C8182
:1012C00024E630E040E050E00E945014F5016083D5
:1012D0002A960FB6F894DEBF0FBECDBFDF91CF9137
:1012E0001F910F91FF90EF90DF90CF90BF90AF9044
:1012F0009F908F907F906F905F904F903F902F9036
:10130000089520912C0330E080912D03281B310992
:10131000C901089580912D0390912C03891750F4F1
:10132000E82FF0E0E25DFC4F208130E08F5F80939A
:101330002D0302C02FEF3FEFC9010895E0912D0367
:1013400080912C03E81730F4F0E0E25DFC4F20813F
:1013500030E002C02FEF3FEFC90108950895CF920A
:10136000DF92EF92FF920F931F93CF93DF937C0155
:10137000CB018A0120910903222391F0EB016B013B
:10138000C40ED51E09C06991D701ED91FC91019061
:10139000F081E02DC7010995CC15DD05A1F703C04B
:1013A000642F0E94210AC801DF91CF911F910F91F4
:1013B000FF90EF90DF90CF900895CF93DF931F922F
:1013C000CDB7DEB76983209109032223D1F02091A4
:1013D0000A03203240F021E030E0FC013383228315
:1013E00020E030E015C080910B03E82FF0E0E45FCF
:1013F000FC4F998190838F5F80930B0380930A0346
:1014000005C061E0CE0101960E94210A21E030E092
:10141000C9010F90DF91CF910895FC0113821282D0
:1014200048EE53E060E070E0448355836683778341
:1014300087E292E09183808308958DEF92E00C948F
:101440000D0A613298F420915703243089F4609397
:101450005003FC0188E793E0DC0102C021912D9349
:101460002A2F281B2617D0F380E0089581E00895E5
:1014700082E0089585ED8093BC008091BC0084FDDE
:10148000FCCF10925703089585EC8093BC00109216
:10149000570308951F920F920FB60F9211240BB6A7
:1014A0000F922F933F934F935F936F937F938F93FD
:1014B0009F93AF93BF93EF93FF938091B900887F81
:1014C000803609F49FC058F5883209F45BC090F467
:1014D000803109F452C038F4882309F4F8C0883008
:1014E00009F0F9C04AC0883109F44CC0803209F0D3
:1014F000F2C05CC0803409F46BC038F4803309F466
:1015000055C0883309F0E7C054C0803509F454C091
:10151000883509F462C0883409F0DDC0DAC0883942
:1015200009F4CBC0A8F4883709F46CC038F48836C5
:1015300009F468C0803709F0CEC064C0883809F467
:10154000BCC0803909F464C0803809F0C4C060C0F0
:10155000803B09F48AC038F4803A09F46BC0883AB9
:1015600009F0B9C082C0803C09F4ABC0883C09F4E2
:10157000A8C0883B09F0AFC08DC08091560380930E
:10158000BB0012C09091530380915203981788F5C5
:1015900080915303E82FF0E0E85AFC4F908190933C
:1015A000BB008F5F8093530385EC88C080934E030C
:1015B00090C080934E0356C0809153039091BB001E
:1015C000E82FF0E0E85AFC4F90838F5F809353033D
:1015D00090915303809152036DC080915303909179
:1015E000BB00E82FF0E0E85AFC4F90838F5F8093B8
:1015F00053038091550381116CC081E080935403A3
:1016000084EA60C083E08093570310924F03CCCFED
:1016100080914F03803208F050C080914F03909129
:10162000BB00E82FF0E0E456FC4F90838F5F80937F
:101630004F03BACF80914F03803230F4E0914F03D3
:10164000F0E0E456FC4F10820E943A0A60914F038A
:10165000E0919803F091990370E08CE993E009958B
:1016600010924F030E94440A36C084E080935703CF
:101670001092510310925003E0919A03F0919B0352
:10168000099580915003811105C081E0809350033A
:101690001092780380915103E82FF0E0E858FC4F56
:1016A00090819093BB008F5F809351039091510381
:1016B00080915003981708F477CF85E88093BC0099
:1016C0000AC085EC8093BC001092570304C01092AE
:1016D0004E030E943A0AFF91EF91BF91AF919F9103
:1016E0008F917F916F915F914F913F912F910F90CB
:1016F0000BBE0F900FBE0F901F901895CF93DF93E6
:10170000CDB7DEB72D970FB6F894DEBF0FBECDBFB5
:101710002DE0E9E0F1E0DE01119601900D922A95AD
:10172000E1F7623031F483709927892B11F48DE150
:1017300004C0FE01E60FF11D81812D960FB6F894CD
:10174000DEBF0FBECDBFDF91CF910895CF92DF9264
:10175000EF92FF920F931F93CF93DF931F92CDB71A
:10176000DEB78C01F62E61E0C12CD12C0AC0E62E2A
:10177000E394C80149830E947E0BC80ED11C6E2DD4
:1017800049816F15A0F3C601840F911D0F90DF9161
:10179000CF911F910F91FF90EF90DF90CF90089520
:1017A0007F928F929F92AF92BF92CF92DF92EF92F1
:1017B000FF920F931F93CF93DF93EC018881998160
:1017C0006CE370E00E943C142A813B81260F371F96
:1017D0003B832A8397FD03C09983888307C0CC96F7
:1017E00099838883215031093B832A838A819B8195
:1017F0006CE370E00E943C142C813D81260F371F62
:101800003D832C8397FD03C09B838A8307C0CC96BE
:101810009B838A83215031093D832C838C819D8158
:1018200068E170E00E943C142E813F81260F371F33
:101830003F832E8397FD03C09D838C8307C048960A
:101840009D838C83215031093F832E838885998520
:101850000C9708F0CAC08E819F811816190624F0D3
:10186000C4C0D986C88603C03BE0832E912CC884AF
:10187000D9847C2C7394EA84FB84570184E9A81AE8
:1018800088EFB80A672DC5010E947E0B0E811F816B
:1018900090E0801791079CF4081B190B1F830E839F
:1018A0008FEFC81AD80A8CE0C816D104D1F6198671
:1018B00018868FEFE81AF80AFB86EA86D8CF10164A
:1018C0001106DCF081E0C81AD10818F0D986C88664
:1018D00007C09986888681E0E81AF108FB86EA86C7
:1018E00068856F5F8A859B858459984F0E947E0B1F
:1018F000080F111D1F830E83BACF402F672DC5011E
:101900000E94A60BFC013197FF87EE871E2D16540F
:101910008DE691E0189F9001199F300D1124442706
:1019200037FD4095542F812F86958695280F311DC0
:10193000411D511D60E871E581E090E00E9418149E
:101940001370133041F420E8C22E21E5D22EEE248C
:10195000E394F12C03C0C12CD12C76010C811D81A4
:10196000C60ED71EE81EF91EDF0120E831E541E072
:1019700050E00E941014C60ED71EE81EF91E20E18A
:101980003EE0D8010E94FE13C60ED71EE81EF91EC7
:101990002A813B814CE3429FC001439F900D11245B
:1019A000C80ED91EE11CF11C88819981AA2797FDD8
:1019B000A095BA2FC80ED91EEA1EFB1EC701B6019C
:1019C00020E831E541E050E00E9472142C5F3F4F67
:1019D0004F4F5F4FCA01B90127E030E040E050E0CF
:1019E0000E9450147D876C8704C0CC24CA94DC2CE0
:1019F0007601B601C701DF91CF911F910F91FF9042
:101A0000EF90DF90CF90BF90AF909F908F907F909E
:101A100008954F925F926F927F92AF92BF92CF9252
:101A2000DF92EF92FF920F931F93CF93DF93EB011F
:101A3000FC01C080D180E280F380C701B60120E8BC
:101A40003FE146E857E00E947214A22FF7FCA15034
:101A5000F4E0AF0280011124C8018A5B9F4F9B878D
:101A60008A87BB27A7FDB09520E830EE49E758EFFD
:101A70000E9410146C0D7D1D8E1D9F1D20E831E508
:101A800041E050E00E94721429013A0159012CE30F
:101A900030E040E050E00E94721479836883C9010D
:101AA0006CE370E00E943C149B838A837D836C838B
:101AB00028E4421624E0520694F088E4A81A84E050
:101AC000B80A075B1F4F1B870A8713C02A853B850F
:101AD0002F5F3F4F3B872A878D56914002C080E0A1
:101AE00090E05C01A40CB51CEDE6AE16E1E0BE068C
:101AF0006CF7BF86AE8619861886FFEFAF1ABF0A4D
:101B0000BF82AE820A851B850459184F68856F5FB6
:101B1000C8010E947E0B4E815F81282F30E0241780
:101B200035075CF4421B530B5F834E832885398550
:101B30002F5F3F4F39872887E9CFC701B60120E8DB
:101B400031E541E050E00E947214C901049667E05B
:101B500070E00E9428149D878C87CE01DF91CF9181
:101B60001F910F91FF90EF90DF90CF90BF90AF90BB
:101B70007F906F905F904F90089588E68093BC03AC
:101B80001092BE031092BD0308951F920F920FB6DC
:101B90000F9211242F933F938F939F93AF93BF93F3
:101BA0008091BF039091C003A091C103B091C20383
:101BB0003091C703232F235D2D3720F40196A11DFB
:101BC000B11D05C0232F20550296A11DB11D2093E4
:101BD000C7038093BF039093C003A093C103B09346
:101BE000C2038091C3039091C403A091C503B09137
:101BF000C6030196A11DB11D8093C3039093C40336
:101C0000A093C503B093C603BF91AF919F918F91ED
:101C10003F912F910F900FBE0F901F9018950F932B
:101C20001F938FB7F8940091BF031091C0032091C8
:101C3000C1033091C2038FBFB801C9011F910F9139
:101C400008959FB7F8944091C3035091C4036091E5
:101C5000C5037091C60386B5A89B06C08F3F21F0CF
:101C60004F5F5F4F6F4F7F4F9FBF2227342F452F0E
:101C7000562F280F311D411D511DA5E0B0E00E94D7
:101C800005140895789484B5826084BD84B581601C
:101C900084BD85B5826085BD85B5816085BDEEE674
:101CA000F0E0808181608083E1E8F0E01082808153
:101CB00082608083808181608083E0E8F0E08081C1
:101CC00081608083E1EBF0E0808184608083E0EBE1
:101CD000F0E0808181608083E1E9F0E080818260D2
:101CE0008083808181608083E0E9F0E08081816091
:101CF0008083EAE7F0E08081846080838081826075
:101D0000808380818160808380818068808310925D
:101D1000C1000895833060F5E82FF0E0EE0FFF1F5B
:101D2000E853FC4F71836083813051F08230A1F021
:101D3000809169008C7F842B80936900E89A0895D4
:101D400080916900440F551F440F551F837F842BDA
:101D500080936900E99A08958091690094E0440FA6
:101D6000551F9A95E1F78F7C842B80936900EA9A3E
:101D700008951F920F920FB60F9211240BB60F9277
:101D80002F933F934F935F936F937F938F939F9383
:101D9000AF93BF93EF93FF938091C8039091C903D2
:101DA000892B29F0E091C803F091C9030995FF91AF
:101DB000EF91BF91AF919F918F917F916F915F91C3
:101DC0004F913F912F910F900BBE0F900FBE0F9030
:101DD0001F9018951F920F920FB60F9211240BB6F9
:101DE0000F922F933F934F935F936F937F938F93B4
:101DF0009F93AF93BF93EF93FF938091CA0390910A
:101E0000CB03892B29F0E091CA03F091CB0309950C
:101E1000FF91EF91BF91AF919F918F917F916F91C2
:101E20005F914F913F912F910F900BBE0F900FBE7E
:101E30000F901F9018951F920F920FB60F921124BA
:101E40000BB60F922F933F934F935F936F937F93B4
:101E50008F939F93AF93BF93EF93FF938091CC03A6
:101E60009091CD03892B29F0E091CC03F091CD0323
:101E70000995FF91EF91BF91AF919F918F917F91C4
:101E80006F915F914F913F912F910F900BBE0F90EB
:101E90000FBE0F901F9018958430B1F030F482304F
:101EA000E1F070F4813081F515C08730F1F018F45D
:101EB000863051F516C08830F1F0893029F51FC001
:101EC000809180008F7703C0809180008F7D809308
:101ED0008000089584B58F7702C084B58F7D84BD5E
:101EE00008958091B0008F7703C08091B0008F7DFE
:101EF0008093B0000895809190008F7703C0809107
:101F000090008F7D809390000895CF93DF9390E0B1
:101F1000FC01E250FF4F4491FC01E25EFE4F8491D0
:101F2000882341F190E0880F991FFC01E85BFE4F88
:101F300025913491D901825C9E4FFC018591949149
:101F4000C82FD92F9FB7F8948C91611106C0409586
:101F500084238C938881842308C0623041F4242F29
:101F6000209582238C938881842B888302C0842BC4
:101F70008C939FBFDF91CF9108950F931F93CF93C1
:101F8000DF931F92CDB7DEB7282F30E0F901E25280
:101F9000FF4F8491F901E250FF4F1491F901E25E85
:101FA000FE4F04910023D1F0882321F069830E9421
:101FB0004C0F6981E02FF0E0EE0FFF1FE25CFE4F57
:101FC00085919491DC019FB7F8948C91611103C0C5
:101FD0001095812301C0812B8C939FBF0F90DF91BF
:101FE000CF911F910F9108950E94420E0E94BA0155
:101FF000C9E4D2E10E9416022097E1F30E9449123F
:10200000F9CFCF92DF92EF92FF920F931F93CF936E
:10201000DF936C01EB017A01E60EF71E00E010E0A1
:102020000BC06991D601ED91FC910190F081E02DFA
:10203000C6010995080F191FCE15DF0591F7C801D4
:10204000DF91CF911F910F91FF90EF90DF90CF9094
:102050000895DB010D900020E9F7AD0141505109D1
:10206000461B570BDC01ED91FC910280F381E02DC2
:1020700009940C942910DC01ED91FC910190F08100
:10208000E02D09940F931F93CF93DF93EC016DE044
:102090000E943B108C016AE0CE010E943B109C0123
:1020A000200F311FC901DF91CF911F910F9108952A
:1020B0000F931F93CF93DF93EC010E9429108C01A3
:1020C000CE010E9442109801280F391FC901DF91EB
:1020D000CF911F910F9108954F925F926F927F92CF
:1020E0009F92AF92BF92CF92DF92EF92FF920F93A7
:1020F0001F93CF93DF93CDB7DEB7A1970FB6F894B8
:10210000DEBF0FBECDBF5C016A017B01922E19A21A
:1021100081E0821710F08AE0982E8E010F5D1F4F2C
:10212000492C512C612C712CC701B601A3019201DD
:102130000E9450148C2D929E801911240150110977
:102140008A3014F4805D01C0895CF80180836901E4
:102150007A01C114D104E104F10431F7B801C501D9
:102160000E942910A1960FB6F894DEBF0FBECDBF16
:10217000DF91CF911F910F91FF90EF90DF90CF9063
:10218000BF90AF909F907F906F905F904F90089519
:102190002115310541F4DC01ED91FC910190F081B4
:1021A000E02D642F09940C946C109A01462F50E096
:1021B00060E070E00C94C810CF92DF92EF92FF9233
:1021C0000F931F93CF93DF93EC016A017B012115DD
:1021D000310579F4E881F9810190F081E02D642FD7
:1021E000DF91CF911F910F91FF90EF90DF90CF90F3
:1021F00009942A30310519F477FD0EC02AE0B701A1
:10220000A601CE01DF91CF911F910F91FF90EF902A
:10221000DF90CF900C946C106DE20E943B108C010B
:1022200044275527BA014C195D096E097F092AE038
:10223000CE010E946C10080F191FC801DF91CF91C9
:102240001F910F91FF90EF90DF90CF9008950F9323
:102250001F93CF93DF93EC010E94DC108C01CE0121
:102260000E9442109C01200F311FC901DF91CF91C4
:102270001F910F910895FC0184859585FC01E05C18
:10228000FF4F20813181FC01EE5BFF4F8081918106
:10229000281B390B2F733327C9010895FC0184854E
:1022A0009585FC01E05CFF4F40815181FC01EE5BB4
:1022B000FF4F208131814217530741F00190F08197
:1022C000E02DE80FF91F208130E002C02FEF3FEF33
:1022D000C9010895FC0184859585FC01E05CFF4FF0
:1022E00040815181FC01EE5BFF4F2081318142171B
:1022F000530781F0A081B181A80FB91F8C91208173
:1023000031812F5F3F4F2F73332731832083282F55
:1023100030E002C02FEF3FEFC9010895FC01868530
:102320009785FC01E05CFF4FDC01AE5BBF4F408155
:1023300051812D913C91119742175307C1F7089590
:102340001F93CF93DF93FC01162F26853785E90174
:10235000C05CDF4F88819981019660E470E00E9443
:102360003C14D901AE5BBF4F4D915C91119784171E
:102370009507D1F3A881B981A20FB31F1C93A6853D
:10238000B785A05CBF4F11969C938E93A689B789A1
:102390002C9181E090E0058C02C0880F991F0A946F
:1023A000E2F7282B2C9381E090E0DF91CF911F91F1
:1023B000089508951F920F920FB60F9211240BB635
:1023C0000F922F933F934F938F939F93EF93FF938E
:1023D0004091C600809118059091190501968F7360
:1023E000992720911A0530911B058217930759F000
:1023F000E0911805F0911905E852FB4F4083909346
:10240000190580931805FF91EF919F918F914F913E
:102410003F912F910F900BBE0F900FBE0F901F900A
:10242000189508951F920F920FB60F9211240BB6B4
:102430000F922F933F934F938F939F93EF93FF931D
:102440004091CE00809190049091910401968F73F9
:10245000992720919204309193048217930759F0A1
:10246000E0919004F0919104E05BFB4F40839093E6
:10247000910480939004FF91EF919F918F914F91E0
:102480003F912F910F900BBE0F900FBE0F901F909A
:1024900018958DEE93E00E943B11892B11F00E945C
:1024A000D9118EEC93E00E943B11892B11F00C9412
:1024B000111208951F920F920FB60F9211240BB6AE
:1024C0000F922F933F935F936F937F938F939F937D
:1024D000AF93BF93EF93FF932091D4043091D50431
:1024E0008091D6049091D7042817390731F4809150
:1024F000C1008F7D8093C10016C0E091D604F09199
:10250000D704EC56FB4F20818091D6049091D704DC
:10251000019660E470E00E943C149093D70480938D
:10252000D6042093C600FF91EF91BF91AF919F9188
:102530008F917F916F915F913F912F910F900BBE83
:102540000F900FBE0F901F9018951F920F920FB60D
:102550000F9211240BB60F922F933F935F936F93BB
:102560007F938F939F93AF93BF93EF93FF932091AC
:102570004C0430914D0480914E0490914F042817E3
:10258000390731F48091C9008F7D8093C90016C04E
:10259000E0914E04F0914F04E45FFB4F2081809165
:1025A0004E0490914F04019660E470E00E943C1448
:1025B00090934F0480934E042093CE00FF91EF91AF
:1025C000BF91AF919F918F917F916F915F913F915B
:1025D0002F910F900BBE0F900FBE0F901F9018956C
:1025E000CF92DF92EF92FF92CF93DF93EC016A01DB
:1025F0007B01EC89FD8981E090E00E8C02C0880FA0
:10260000991F0A94E2F7808360EC76EC8DE290E00B
:10261000A70196010E945014215031094109510926
:102620005695479537952795211580E1380798F0FD
:10263000EC89FD89108260E673EE86E190E0A701E7
:1026400096010E94501421503109410951095695B3
:10265000479537952795E889F9893083EA89FB8979
:102660002083EE89FF89408181E090E09C010A8C03
:1026700002C0220F331F0A94E2F7422B4083EE89F7
:10268000FF8940819C010B8C02C0220F331F0A94EA
:10269000E2F7422B4083EE89FF8940819C010C8C3C
:1026A00002C0220F331F0A94E2F7422B4083EE89C7
:1026B000FF8920810D8C02C0880F991F0A94E2F7D0
:1026C000809582238083DF91CF91FF90EF90DF9000
:1026D000CF9008951092F0031092EF0388EE93E0EC
:1026E000A0E0B0E08093F1039093F203A093F30392
:1026F000B093F40327E332E03093EE032093ED032D
:1027000048ED54E05093FA034093F90344E954E050
:102710005093FC034093FB0345EC50E05093FE03C1
:102720004093FD0344EC50E0509300044093FF03BA
:1027300040EC50E0509302044093010441EC50E01F
:10274000509304044093030446EC50E05093060475
:1027500040930504E4E0E093070473E070930804F9
:1027600067E06093090455E050930A0441E0409308
:102770000B041092D1031092D0038093D203909354
:10278000D303A093D403B093D5033093CF03209306
:10279000CE0380E594E09093DB038093DA038CE032
:1027A00094E09093DD038093DC038DEC90E09093B4
:1027B000DF038093DE038CEC90E09093E103809341
:1027C000E00388EC90E09093E3038093E20389ECCC
:1027D00090E09093E5038093E4038EEC90E0909377
:1027E000E7038093E603E093E8037093E9036093C3
:1027F000EA035093EB034093EC0308950E94941472
:10280000B7FF0895821B930B08950E949414A59F0F
:10281000900DB49F900DA49F800D911D11240895DB
:10282000B7FF0C9405140E940514821B930B0895A6
:10283000DB018F939F930E940514BF91AF91A29FDC
:10284000800D911DA39F900DB29F900D11240895AE
:10285000AA1BBB1B51E107C0AA1FBB1FA617B707C6
:1028600010F0A61BB70B881F991F5A95A9F78095E2
:102870009095BC01CD01089597FB072E16F40094A6
:1028800007D077FD09D00E94281407FC05D03EF43C
:10289000909581959F4F0895709561957F4F08950C
:1028A000A1E21A2EAA1BBB1BFD010DC0AA1FBB1F54
:1028B000EE1FFF1FA217B307E407F50720F0A21BC6
:1028C000B30BE40BF50B661F771F881F991F1A9433
:1028D00069F760957095809590959B01AC01BD015D
:1028E000CF010895052E97FB16F4009407D057FDED
:1028F0000DD00E94501407FC09D07EF4909580956D
:10290000709561957F4F8F4F9F4F089550954095DB
:10291000309521953F4F4F4F5F4F0895EE0FFF1FAA
:102920000590F491E02D0994A29FB001B39FC001DE
:10293000A39F01D0B29F700D811D1124911D089598
:102940000790F691E02D0994FC0188279927E894D7
:1029500021912032E9F3293010F02E30C8F32B32C8
:1029600041F02D3239F4689404C00E94C214820FE1
:10297000911D219120532A30C0F31EF4909581952A
:102980009F4F08957AE0979F902D879F802D910DFE
:10299000112408950F931F93CF93DF93CDB7DEB724
:1029A00060970FB6F894DEBF0FBECDBF0F89188DAC
:1029B000898D9A8D26E02C831A83098397FF02C0A4
:1029C00080E090E801979E838D83AE01435E5F4F68
:1029D000588B4F876B8D7C8DCE0101960E94091517
:1029E0004D815E8157FD0AC02F81388542175307FC
:1029F0000CF49A01F801E20FF31F108260960FB6F3
:102A0000F894DEBF0FBECDBFDF91CF911F910F9124
:102A100008952F923F924F925F926F927F928F9282
:102A20009F92AF92BF92CF92DF92EF92FF920F935D
:102A30001F93CF93DF93CDB7DEB72C970FB6F894E3
:102A4000DEBF0FBECDBF7C016B018A01FC01178286
:102A50001682838181FFC7C188248394912C8C0EB8
:102A60009D1EF7019381F60193FD859193FF81915E
:102A70006F01882309F4B3C1853239F493FD859140
:102A800093FF81916F01853229F4B70190E00E9494
:102A90002517E7CF712C312C20E02032A8F48B329F
:102AA00061F028F4803251F0833271F40BC08D3222
:102AB00039F0803349F4216028C02260246025C0A9
:102AC000286023C0206121C027FD27C0382F305344
:102AD0003A3078F426FF06C0FAE07F9E300D1124CC
:102AE000732E13C08AE0389E300D1124332E2062DD
:102AF0000CC08E3221F426FD72C1206406C08C36D3
:102B000011F4206802C0883641F4F60193FD8591E6
:102B100093FF81916F018111C0CF982F955493300D
:102B200018F09052933028F40C5F1F4FFFE3F983A5
:102B30000DC0833631F0833771F0833509F05EC004
:102B400023C0F801808189830E5F1F4F6624639440
:102B5000712C540115C02801F2E04F0E511CF801F0
:102B6000A080B18026FF03C0672D70E002C06FEF28
:102B70007FEFC5012C870E941A173C0182012C852A
:102B80006FE7262E222218C02801F2E04F0E511CBA
:102B9000F801A080B18026FF03C0672D70E002C05D
:102BA0006FEF7FEFC5012C870E940F173C012C852A
:102BB00050E8252E222A820123FC1CC006C0B70142
:102BC00080E290E00E9425173A94832D90E06816E9
:102BD0007906A8F30FC0F50127FC859127FE8191A6
:102BE0005F01B70190E00E94251731103A94F1E09F
:102BF0006F1A71086114710471F7EEC0843611F018
:102C0000893641F5F80127FF07C060817181828113
:102C100093810C5F1F4F08C060817181882777FD09
:102C20008095982F0E5F1F4F4FE6642E622297FF0C
:102C300009C090958095709561957F4F8F4F9F4FFC
:102C4000F0E86F2A2AE030E0A4010E945117A82E74
:102C5000A81844C0853731F43FEEB32EB2222AE0E3
:102C600030E024C099EFB92EB2228F36B9F020F4AB
:102C7000883509F0B4C00DC0803721F0883709F0DD
:102C8000AEC002C020E1B22AB4FE0BC084E0B82A74
:102C900008C024FF09C0E6E0BE2A06C028E030E0F4
:102CA00005C020E130E002C020E132E0F801B7FECB
:102CB00007C060817181828193810C5F1F4F06C0C4
:102CC0006081718180E090E00E5F1F4FA4010E943F
:102CD0005117A82EA8188FE7682E6B2066FE0BC030
:102CE000362D3E7FA71450F464FE0AC062FC08C073
:102CF000362D3E7E05C0BA2C362D03C0BA2C01C03D
:102D0000B72C34FF0DC0FE01EA0DF11D8081803328
:102D100011F4397E09C032FF06C0B394B39404C0E5
:102D2000832F867809F0B39433FD14C030FF0FC0B1
:102D30007A2CB31460F4730C7B18B32C08C0B70161
:102D400080E290E03C870E942517B3943C85B31441
:102D5000B0F304C0B31410F43B1801C0312C34FF9D
:102D600012C0B70180E390E03C870E9425173C85A4
:102D700032FF1EC031FF03C088E590E002C088E743
:102D800090E0B7010CC0832F867891F031FD02C02E
:102D900080E201C08BE237FD8DE2B70190E00E9436
:102DA000251706C0B70180E390E00E9425177A94AA
:102DB000A714C0F3AA94F401EA0DF11DB7018081B4
:102DC00090E00E942517A110F5CF06C0B70180E260
:102DD00090E00E9425173A943110F8CF42CEF701C7
:102DE0002681378102C02FEF3FEFC9012C960FB625
:102DF000F894DEBF0FBECDBFDF91CF911F910F9131
:102E0000FF90EF90DF90CF90BF90AF909F908F900A
:102E10007F906F905F904F903F902F900895FC01AE
:102E20000590615070400110D8F7809590958E0FF5
:102E30009F1F0895FC016150704001900110D8F768
:102E4000809590958E0F9F1F08950F931F93CF939A
:102E5000DF938C01EB018B8181FD03C00FEF1FEF2E
:102E60001AC082FF0DC02E813F818C819D81281761
:102E7000390764F4E881F9810193F983E88306C096
:102E8000E885F985802F0995892B41F78E819F81EF
:102E900001969F838E83C801DF91CF911F910F917F
:102EA0000895FA01AA27283051F1203181F1E894E0
:102EB0006F936E7F6E5F7F4F8F4F9F4FAF4FB1E02D
:102EC0003ED0B4E03CD0670F781F891F9A1FA11D28
:102ED000680F791F8A1F911DA11D6A0F711D811D29
:102EE000911DA11D20D009F468943F912AE0269FEE
:102EF00011243019305D3193DEF6CF010895462F4D
:102F00004770405D4193B3E00FD0C9F7F6CF462F2D
:102F10004F70405D4A3318F0495D31FD4052419396
:102F200002D0A9F7EACFB4E0A69597958795779553
:102F30006795BA95C9F700976105710508959B01DA
:102F4000AC010A2E06945795479537952795BA9563
:102F5000C9F7620F731F841F951FA01D0895F89471
:022F6000FFCFA1
:102F62000857026B02E0930400001F1C1F1E1F1E65
:102F72001F1F1E1F1E1F00FFFFFFFF000A11181C4C
:102F82000700000000070606040424504F52535461
:102F92002C462A32300D0A0024504F5253542C57DB
:102FA2002A33310D0A002531642531642531642527
:102FB200316425316425316425316425316425313C
:102FC200642530326425630D0A002C2C2C302C3001
:102FD2002A35390D0A0024504F525A422A35350DEE
:102FE2000A0024504F525A422C524D432C312C4746
:102FF20047412C312A34380D0A004E6578743A2044
:103002000052657365742047505300456E746572B3
:10301200696E67206465627567206D6F6465004C38
:10302200656176696E67206465627567206D6F649D
:1030320065004D4355206672657175656E63793A18
:1030420020004465627567206D6F64652074696D48
:10305200656F7574004750524D43004750474741D2
:10306200004E004E4E4500454E4500455345005327
:103072005345005353570057535700574E57004E6E
:103082004E570000000000DD09AF0981098A099E40
:1030920009AE0900000000A01101103B116A114E97
:0430A200118E11007A
:00000001FF
